{
  "address": "0xF97b46446Fec1741a194f195ba311B893837b482",
  "abi": [
    {
      "inputs": [],
      "stateMutability": "nonpayable",
      "type": "constructor"
    },
    {
      "anonymous": false,
      "inputs": [
        {
          "indexed": true,
          "internalType": "address",
          "name": "account",
          "type": "address"
        },
        {
          "indexed": true,
          "internalType": "address",
          "name": "operator",
          "type": "address"
        },
        {
          "indexed": false,
          "internalType": "bool",
          "name": "approved",
          "type": "bool"
        }
      ],
      "name": "ApprovalForAll",
      "type": "event"
    },
    {
      "anonymous": false,
      "inputs": [
        {
          "indexed": true,
          "internalType": "address",
          "name": "operator",
          "type": "address"
        },
        {
          "indexed": true,
          "internalType": "address",
          "name": "from",
          "type": "address"
        },
        {
          "indexed": true,
          "internalType": "address",
          "name": "to",
          "type": "address"
        },
        {
          "indexed": false,
          "internalType": "uint256[]",
          "name": "ids",
          "type": "uint256[]"
        },
        {
          "indexed": false,
          "internalType": "uint256[]",
          "name": "values",
          "type": "uint256[]"
        }
      ],
      "name": "TransferBatch",
      "type": "event"
    },
    {
      "anonymous": false,
      "inputs": [
        {
          "indexed": true,
          "internalType": "address",
          "name": "operator",
          "type": "address"
        },
        {
          "indexed": true,
          "internalType": "address",
          "name": "from",
          "type": "address"
        },
        {
          "indexed": true,
          "internalType": "address",
          "name": "to",
          "type": "address"
        },
        {
          "indexed": false,
          "internalType": "uint256",
          "name": "id",
          "type": "uint256"
        },
        {
          "indexed": false,
          "internalType": "uint256",
          "name": "value",
          "type": "uint256"
        }
      ],
      "name": "TransferSingle",
      "type": "event"
    },
    {
      "anonymous": false,
      "inputs": [
        {
          "indexed": false,
          "internalType": "string",
          "name": "value",
          "type": "string"
        },
        {
          "indexed": true,
          "internalType": "uint256",
          "name": "id",
          "type": "uint256"
        }
      ],
      "name": "URI",
      "type": "event"
    },
    {
      "inputs": [
        {
          "internalType": "address",
          "name": "account",
          "type": "address"
        },
        {
          "internalType": "uint256",
          "name": "id",
          "type": "uint256"
        }
      ],
      "name": "balanceOf",
      "outputs": [
        {
          "internalType": "uint256",
          "name": "",
          "type": "uint256"
        }
      ],
      "stateMutability": "view",
      "type": "function"
    },
    {
      "inputs": [
        {
          "internalType": "address[]",
          "name": "accounts",
          "type": "address[]"
        },
        {
          "internalType": "uint256[]",
          "name": "ids",
          "type": "uint256[]"
        }
      ],
      "name": "balanceOfBatch",
      "outputs": [
        {
          "internalType": "uint256[]",
          "name": "",
          "type": "uint256[]"
        }
      ],
      "stateMutability": "view",
      "type": "function"
    },
    {
      "inputs": [
        {
          "internalType": "address",
          "name": "account",
          "type": "address"
        },
        {
          "internalType": "address",
          "name": "operator",
          "type": "address"
        }
      ],
      "name": "isApprovedForAll",
      "outputs": [
        {
          "internalType": "bool",
          "name": "",
          "type": "bool"
        }
      ],
      "stateMutability": "view",
      "type": "function"
    },
    {
      "inputs": [
        {
          "internalType": "uint256",
          "name": "count",
          "type": "uint256"
        }
      ],
      "name": "mint",
      "outputs": [],
      "stateMutability": "payable",
      "type": "function"
    },
    {
      "inputs": [
        {
          "internalType": "address",
          "name": "from",
          "type": "address"
        },
        {
          "internalType": "address",
          "name": "to",
          "type": "address"
        },
        {
          "internalType": "uint256[]",
          "name": "ids",
          "type": "uint256[]"
        },
        {
          "internalType": "uint256[]",
          "name": "amounts",
          "type": "uint256[]"
        },
        {
          "internalType": "bytes",
          "name": "data",
          "type": "bytes"
        }
      ],
      "name": "safeBatchTransferFrom",
      "outputs": [],
      "stateMutability": "nonpayable",
      "type": "function"
    },
    {
      "inputs": [
        {
          "internalType": "address",
          "name": "from",
          "type": "address"
        },
        {
          "internalType": "address",
          "name": "to",
          "type": "address"
        },
        {
          "internalType": "uint256",
          "name": "id",
          "type": "uint256"
        },
        {
          "internalType": "uint256",
          "name": "amount",
          "type": "uint256"
        },
        {
          "internalType": "bytes",
          "name": "data",
          "type": "bytes"
        }
      ],
      "name": "safeTransferFrom",
      "outputs": [],
      "stateMutability": "nonpayable",
      "type": "function"
    },
    {
      "inputs": [
        {
          "internalType": "address",
          "name": "operator",
          "type": "address"
        },
        {
          "internalType": "bool",
          "name": "approved",
          "type": "bool"
        }
      ],
      "name": "setApprovalForAll",
      "outputs": [],
      "stateMutability": "nonpayable",
      "type": "function"
    },
    {
      "inputs": [
        {
          "internalType": "bytes4",
          "name": "interfaceId",
          "type": "bytes4"
        }
      ],
      "name": "supportsInterface",
      "outputs": [
        {
          "internalType": "bool",
          "name": "",
          "type": "bool"
        }
      ],
      "stateMutability": "view",
      "type": "function"
    },
    {
      "inputs": [],
      "name": "tokensCount",
      "outputs": [
        {
          "internalType": "uint256",
          "name": "",
          "type": "uint256"
        }
      ],
      "stateMutability": "view",
      "type": "function"
    },
    {
      "inputs": [
        {
          "internalType": "uint256",
          "name": "",
          "type": "uint256"
        }
      ],
      "name": "uri",
      "outputs": [
        {
          "internalType": "string",
          "name": "",
          "type": "string"
        }
      ],
      "stateMutability": "view",
      "type": "function"
    }
  ],
  "transactionHash": "0x205893b55f4ae307629bd728c2d2560510ef6e4b99adc6788eafbec6b6c7336f",
  "args": [],
  "solcInputHash": "0610aa00e216036f85a6089d0d2cda7a",
  "bytecode": "0x6080604052600380546001600160a01b03191673aaf53023ed64b796b11a3592100fb5dc3ae239651790553480156200003757600080fd5b506040518060800160405280605281526020016200183c605291396200005d816200006f565b5061271060048190556005556200016b565b80516200008490600290602084019062000088565b5050565b82805462000096906200012e565b90600052602060002090601f016020900481019282620000ba576000855562000105565b82601f10620000d557805160ff191683800117855562000105565b8280016001018555821562000105579182015b8281111562000105578251825591602001919060010190620000e8565b506200011392915062000117565b5090565b5b8082111562000113576000815560010162000118565b600181811c908216806200014357607f821691505b602082108114156200016557634e487b7160e01b600052602260045260246000fd5b50919050565b6116c1806200017b6000396000f3fe6080604052600436106100905760003560e01c8063a0712d6811610059578063a0712d6814610174578063a22cb46514610187578063a64ed8ba146101a7578063e985e9c5146101bc578063f242432a1461020557600080fd5b8062fdd58e1461009557806301ffc9a7146100c85780630e89341c146100f85780632eb2c2d6146101255780634e1273f414610147575b600080fd5b3480156100a157600080fd5b506100b56100b0366004611119565b610225565b6040519081526020015b60405180910390f35b3480156100d457600080fd5b506100e86100e336600461120d565b6102bc565b60405190151581526020016100bf565b34801561010457600080fd5b5061011861011336600461124c565b61030e565b6040516100bf91906113cd565b34801561013157600080fd5b50610145610140366004610fd6565b6103a2565b005b34801561015357600080fd5b50610167610162366004611142565b610439565b6040516100bf919061138c565b61014561018236600461124c565b61059b565b34801561019357600080fd5b506101456101a23660046110df565b610699565b3480156101b357600080fd5b506004546100b5565b3480156101c857600080fd5b506100e86101d7366004610fa4565b6001600160a01b03918216600090815260016020908152604080832093909416825291909152205460ff1690565b34801561021157600080fd5b5061014561022036600461107c565b610770565b60006001600160a01b0383166102965760405162461bcd60e51b815260206004820152602b60248201527f455243313135353a2062616c616e636520717565727920666f7220746865207a60448201526a65726f206164647265737360a81b60648201526084015b60405180910390fd5b506000908152602081815260408083206001600160a01b03949094168352929052205490565b60006001600160e01b03198216636cdb3d1360e11b14806102ed57506001600160e01b031982166303a24d0760e21b145b8061030857506301ffc9a760e01b6001600160e01b03198316145b92915050565b60606002805461031d90611521565b80601f016020809104026020016040519081016040528092919081815260200182805461034990611521565b80156103965780601f1061036b57610100808354040283529160200191610396565b820191906000526020600020905b81548152906001019060200180831161037957829003601f168201915b50505050509050919050565b6001600160a01b0385163314806103be57506103be85336101d7565b6104255760405162461bcd60e51b815260206004820152603260248201527f455243313135353a207472616e736665722063616c6c6572206973206e6f74206044820152711bdddb995c881b9bdc88185c1c1c9bdd995960721b606482015260840161028d565b61043285858585856107f7565b5050505050565b6060815183511461049e5760405162461bcd60e51b815260206004820152602960248201527f455243313135353a206163636f756e747320616e6420696473206c656e677468604482015268040dad2e6dac2e8c6d60bb1b606482015260840161028d565b6000835167ffffffffffffffff8111156104c857634e487b7160e01b600052604160045260246000fd5b6040519080825280602002602001820160405280156104f1578160200160208202803683370190505b50905060005b84518110156105935761055885828151811061052357634e487b7160e01b600052603260045260246000fd5b602002602001015185838151811061054b57634e487b7160e01b600052603260045260246000fd5b6020026020010151610225565b82828151811061057857634e487b7160e01b600052603260045260246000fd5b602090810291909101015261058c81611589565b90506104f7565b509392505050565b6000600454116105db5760405162461bcd60e51b815260206004820152600b60248201526a6f7574206f66204e46547360a81b604482015260640161028d565b6003546040516001600160a01b03909116903490600081818185875af1925050503d8060008114610628576040519150601f19603f3d011682016040523d82523d6000602084013e61062d565b606091505b50505060005b818110156106955761066d3360045460055461064f91906114f3565b670de0b6b3a7640000604051806020016040528060008152506109f0565b6004805490600061067d8361150a565b9190505550808061068d90611589565b915050610633565b5050565b336001600160a01b03831614156107045760405162461bcd60e51b815260206004820152602960248201527f455243313135353a2073657474696e6720617070726f76616c20737461747573604482015268103337b91039b2b63360b91b606482015260840161028d565b3360008181526001602090815260408083206001600160a01b03871680855290835292819020805460ff191686151590811790915590519081529192917f17307eab39ab6107e8899845ad3d59bd9653f200f220920489ca2b5937696c31910160405180910390a35050565b6001600160a01b03851633148061078c575061078c85336101d7565b6107ea5760405162461bcd60e51b815260206004820152602960248201527f455243313135353a2063616c6c6572206973206e6f74206f776e6572206e6f7260448201526808185c1c1c9bdd995960ba1b606482015260840161028d565b6104328585858585610afa565b81518351146108595760405162461bcd60e51b815260206004820152602860248201527f455243313135353a2069647320616e6420616d6f756e7473206c656e677468206044820152670dad2e6dac2e8c6d60c31b606482015260840161028d565b6001600160a01b03841661087f5760405162461bcd60e51b815260040161028d90611428565b3360005b84518110156109825760008582815181106108ae57634e487b7160e01b600052603260045260246000fd5b6020026020010151905060008583815181106108da57634e487b7160e01b600052603260045260246000fd5b602090810291909101810151600084815280835260408082206001600160a01b038e16835290935291909120549091508181101561092a5760405162461bcd60e51b815260040161028d9061146d565b6000838152602081815260408083206001600160a01b038e8116855292528083208585039055908b168252812080548492906109679084906114db565b925050819055505050508061097b90611589565b9050610883565b50846001600160a01b0316866001600160a01b0316826001600160a01b03167f4a39dc06d4c0dbc64b70af90fd698a233a518aa5d07e595d983b8c0526c8f7fb87876040516109d292919061139f565b60405180910390a46109e8818787878787610c17565b505050505050565b6001600160a01b038416610a505760405162461bcd60e51b815260206004820152602160248201527f455243313135353a206d696e7420746f20746865207a65726f206164647265736044820152607360f81b606482015260840161028d565b33610a6a81600087610a6188610d82565b61043288610d82565b6000848152602081815260408083206001600160a01b038916845290915281208054859290610a9a9084906114db565b909155505060408051858152602081018590526001600160a01b0380881692600092918516917fc3d58168c5ae7397731d063d5bbf3d657854427343f4c083240f7aacaa2d0f62910160405180910390a461043281600087878787610ddb565b6001600160a01b038416610b205760405162461bcd60e51b815260040161028d90611428565b33610b30818787610a6188610d82565b6000848152602081815260408083206001600160a01b038a16845290915290205483811015610b715760405162461bcd60e51b815260040161028d9061146d565b6000858152602081815260408083206001600160a01b038b8116855292528083208785039055908816825281208054869290610bae9084906114db565b909155505060408051868152602081018690526001600160a01b03808916928a821692918616917fc3d58168c5ae7397731d063d5bbf3d657854427343f4c083240f7aacaa2d0f62910160405180910390a4610c0e828888888888610ddb565b50505050505050565b6001600160a01b0384163b156109e85760405163bc197c8160e01b81526001600160a01b0385169063bc197c8190610c5b90899089908890889088906004016112e9565b602060405180830381600087803b158015610c7557600080fd5b505af1925050508015610ca5575060408051601f3d908101601f19168201909252610ca291810190611230565b60015b610d5257610cb16115d0565b806308c379a01415610ceb5750610cc66115e8565b80610cd15750610ced565b8060405162461bcd60e51b815260040161028d91906113cd565b505b60405162461bcd60e51b815260206004820152603460248201527f455243313135353a207472616e7366657220746f206e6f6e20455243313135356044820152732932b1b2b4bb32b91034b6b83632b6b2b73a32b960611b606482015260840161028d565b6001600160e01b0319811663bc197c8160e01b14610c0e5760405162461bcd60e51b815260040161028d906113e0565b60408051600180825281830190925260609160009190602080830190803683370190505090508281600081518110610dca57634e487b7160e01b600052603260045260246000fd5b602090810291909101015292915050565b6001600160a01b0384163b156109e85760405163f23a6e6160e01b81526001600160a01b0385169063f23a6e6190610e1f9089908990889088908890600401611347565b602060405180830381600087803b158015610e3957600080fd5b505af1925050508015610e69575060408051601f3d908101601f19168201909252610e6691810190611230565b60015b610e7557610cb16115d0565b6001600160e01b0319811663f23a6e6160e01b14610c0e5760405162461bcd60e51b815260040161028d906113e0565b80356001600160a01b0381168114610ebc57600080fd5b919050565b600082601f830112610ed1578081fd5b81356020610ede826114b7565b604051610eeb828261155c565b8381528281019150858301600585901b87018401881015610f0a578586fd5b855b85811015610f2857813584529284019290840190600101610f0c565b5090979650505050505050565b600082601f830112610f45578081fd5b813567ffffffffffffffff811115610f5f57610f5f6115ba565b604051610f76601f8301601f19166020018261155c565b818152846020838601011115610f8a578283fd5b816020850160208301379081016020019190915292915050565b60008060408385031215610fb6578182fd5b610fbf83610ea5565b9150610fcd60208401610ea5565b90509250929050565b600080600080600060a08688031215610fed578081fd5b610ff686610ea5565b945061100460208701610ea5565b9350604086013567ffffffffffffffff80821115611020578283fd5b61102c89838a01610ec1565b94506060880135915080821115611041578283fd5b61104d89838a01610ec1565b93506080880135915080821115611062578283fd5b5061106f88828901610f35565b9150509295509295909350565b600080600080600060a08688031215611093578081fd5b61109c86610ea5565b94506110aa60208701610ea5565b93506040860135925060608601359150608086013567ffffffffffffffff8111156110d3578182fd5b61106f88828901610f35565b600080604083850312156110f1578182fd5b6110fa83610ea5565b91506020830135801515811461110e578182fd5b809150509250929050565b6000806040838503121561112b578182fd5b61113483610ea5565b946020939093013593505050565b60008060408385031215611154578182fd5b823567ffffffffffffffff8082111561116b578384fd5b818501915085601f83011261117e578384fd5b8135602061118b826114b7565b604051611198828261155c565b8381528281019150858301600585901b870184018b10156111b7578889fd5b8896505b848710156111e0576111cc81610ea5565b8352600196909601959183019183016111bb565b50965050860135925050808211156111f6578283fd5b5061120385828601610ec1565b9150509250929050565b60006020828403121561121e578081fd5b813561122981611672565b9392505050565b600060208284031215611241578081fd5b815161122981611672565b60006020828403121561125d578081fd5b5035919050565b6000815180845260208085019450808401835b8381101561129357815187529582019590820190600101611277565b509495945050505050565b60008151808452815b818110156112c3576020818501810151868301820152016112a7565b818111156112d45782602083870101525b50601f01601f19169290920160200192915050565b6001600160a01b0386811682528516602082015260a06040820181905260009061131590830186611264565b82810360608401526113278186611264565b9050828103608084015261133b818561129e565b98975050505050505050565b6001600160a01b03868116825285166020820152604081018490526060810183905260a0608082018190526000906113819083018461129e565b979650505050505050565b6020815260006112296020830184611264565b6040815260006113b26040830185611264565b82810360208401526113c48185611264565b95945050505050565b602081526000611229602083018461129e565b60208082526028908201527f455243313135353a204552433131353552656365697665722072656a656374656040820152676420746f6b656e7360c01b606082015260800190565b60208082526025908201527f455243313135353a207472616e7366657220746f20746865207a65726f206164604082015264647265737360d81b606082015260800190565b6020808252602a908201527f455243313135353a20696e73756666696369656e742062616c616e636520666f60408201526939103a3930b739b332b960b11b606082015260800190565b600067ffffffffffffffff8211156114d1576114d16115ba565b5060051b60200190565b600082198211156114ee576114ee6115a4565b500190565b600082821015611505576115056115a4565b500390565b600081611519576115196115a4565b506000190190565b600181811c9082168061153557607f821691505b6020821081141561155657634e487b7160e01b600052602260045260246000fd5b50919050565b601f8201601f1916810167ffffffffffffffff81118282101715611582576115826115ba565b6040525050565b600060001982141561159d5761159d6115a4565b5060010190565b634e487b7160e01b600052601160045260246000fd5b634e487b7160e01b600052604160045260246000fd5b600060033d11156115e557600481823e5160e01c5b90565b600060443d10156115f65790565b6040516003193d81016004833e81513d67ffffffffffffffff816024840111818411171561162657505050505090565b828501915081518181111561163e5750505050505090565b843d87010160208285010111156116585750505050505090565b6116676020828601018761155c565b509095945050505050565b6001600160e01b03198116811461168857600080fd5b5056fea2646970667358221220d0555f8409ef5ef72cbc3ec6064017fab568c97ec12db5f24437f09a7d98808464736f6c6343000804003368747470733a2f2f697066732e696f2f697066732f516d626b4348414d4a395569564866557a4b4172676f4b333535596a3671374b6a5a466d71776e38563858544b702f7b5f746f6b656e737d2e6a736f6e",
  "devdoc": {
    "kind": "dev",
    "methods": {
      "balanceOf(address,uint256)": {
        "details": "See {IERC1155-balanceOf}. Requirements: - `account` cannot be the zero address."
      },
      "balanceOfBatch(address[],uint256[])": {
        "details": "See {IERC1155-balanceOfBatch}. Requirements: - `accounts` and `ids` must have the same length."
      },
      "isApprovedForAll(address,address)": {
        "details": "See {IERC1155-isApprovedForAll}."
      },
      "safeBatchTransferFrom(address,address,uint256[],uint256[],bytes)": {
        "details": "See {IERC1155-safeBatchTransferFrom}."
      },
      "safeTransferFrom(address,address,uint256,uint256,bytes)": {
        "details": "See {IERC1155-safeTransferFrom}."
      },
      "setApprovalForAll(address,bool)": {
        "details": "See {IERC1155-setApprovalForAll}."
      },
      "supportsInterface(bytes4)": {
        "details": "See {IERC165-supportsInterface}."
      },
      "uri(uint256)": {
        "details": "See {IERC1155MetadataURI-uri}. This implementation returns the same URI for *all* token types. It relies on the token type ID substitution mechanism https://eips.ethereum.org/EIPS/eip-1155#metadata[defined in the EIP]. Clients calling this function must replace the `\\{id\\}` substring with the actual token type ID."
      }
    },
    "version": 1
  },
  "userdoc": {
    "kind": "user",
    "methods": {},
    "version": 1
  },
  "storageLayout": {
    "storage": [
      {
        "astId": 25,
        "contract": "contracts/AntiApe.sol:AntiApe",
        "label": "_balances",
        "offset": 0,
        "slot": "0",
        "type": "t_mapping(t_uint256,t_mapping(t_address,t_uint256))"
      },
      {
        "astId": 31,
        "contract": "contracts/AntiApe.sol:AntiApe",
        "label": "_operatorApprovals",
        "offset": 0,
        "slot": "1",
        "type": "t_mapping(t_address,t_mapping(t_address,t_bool))"
      },
      {
        "astId": 33,
        "contract": "contracts/AntiApe.sol:AntiApe",
        "label": "_uri",
        "offset": 0,
        "slot": "2",
        "type": "t_string_storage"
      },
      {
        "astId": 1622,
        "contract": "contracts/AntiApe.sol:AntiApe",
        "label": "AntiApe",
        "offset": 0,
        "slot": "3",
        "type": "t_address"
      },
      {
        "astId": 1624,
        "contract": "contracts/AntiApe.sol:AntiApe",
        "label": "_tokens",
        "offset": 0,
        "slot": "4",
        "type": "t_uint256"
      },
      {
        "astId": 1626,
        "contract": "contracts/AntiApe.sol:AntiApe",
        "label": "_total",
        "offset": 0,
        "slot": "5",
        "type": "t_uint256"
      }
    ],
    "types": {
      "t_address": {
        "encoding": "inplace",
        "label": "address",
        "numberOfBytes": "20"
      },
      "t_bool": {
        "encoding": "inplace",
        "label": "bool",
        "numberOfBytes": "1"
      },
      "t_mapping(t_address,t_bool)": {
        "encoding": "mapping",
        "key": "t_address",
        "label": "mapping(address => bool)",
        "numberOfBytes": "32",
        "value": "t_bool"
      },
      "t_mapping(t_address,t_mapping(t_address,t_bool))": {
        "encoding": "mapping",
        "key": "t_address",
        "label": "mapping(address => mapping(address => bool))",
        "numberOfBytes": "32",
        "value": "t_mapping(t_address,t_bool)"
      },
      "t_mapping(t_address,t_uint256)": {
        "encoding": "mapping",
        "key": "t_address",
        "label": "mapping(address => uint256)",
        "numberOfBytes": "32",
        "value": "t_uint256"
      },
      "t_mapping(t_uint256,t_mapping(t_address,t_uint256))": {
        "encoding": "mapping",
        "key": "t_uint256",
        "label": "mapping(uint256 => mapping(address => uint256))",
        "numberOfBytes": "32",
        "value": "t_mapping(t_address,t_uint256)"
      },
      "t_string_storage": {
        "encoding": "bytes",
        "label": "string",
        "numberOfBytes": "32"
      },
      "t_uint256": {
        "encoding": "inplace",
        "label": "uint256",
        "numberOfBytes": "32"
      }
    }
  }
}