{
  "_format": "hh-sol-artifact-1",
  "contractName": "AntiApe",
  "sourceName": "contracts/AntiApe.sol",
  "abi": [
    {
      "inputs": [],
      "stateMutability": "nonpayable",
      "type": "constructor"
    },
    {
      "anonymous": false,
      "inputs": [
        {
          "indexed": true,
          "internalType": "address",
          "name": "account",
          "type": "address"
        },
        {
          "indexed": true,
          "internalType": "address",
          "name": "operator",
          "type": "address"
        },
        {
          "indexed": false,
          "internalType": "bool",
          "name": "approved",
          "type": "bool"
        }
      ],
      "name": "ApprovalForAll",
      "type": "event"
    },
    {
      "anonymous": false,
      "inputs": [
        {
          "indexed": true,
          "internalType": "address",
          "name": "previousOwner",
          "type": "address"
        },
        {
          "indexed": true,
          "internalType": "address",
          "name": "newOwner",
          "type": "address"
        }
      ],
      "name": "OwnershipTransferred",
      "type": "event"
    },
    {
      "anonymous": false,
      "inputs": [
        {
          "indexed": true,
          "internalType": "address",
          "name": "operator",
          "type": "address"
        },
        {
          "indexed": true,
          "internalType": "address",
          "name": "from",
          "type": "address"
        },
        {
          "indexed": true,
          "internalType": "address",
          "name": "to",
          "type": "address"
        },
        {
          "indexed": false,
          "internalType": "uint256[]",
          "name": "ids",
          "type": "uint256[]"
        },
        {
          "indexed": false,
          "internalType": "uint256[]",
          "name": "values",
          "type": "uint256[]"
        }
      ],
      "name": "TransferBatch",
      "type": "event"
    },
    {
      "anonymous": false,
      "inputs": [
        {
          "indexed": true,
          "internalType": "address",
          "name": "operator",
          "type": "address"
        },
        {
          "indexed": true,
          "internalType": "address",
          "name": "from",
          "type": "address"
        },
        {
          "indexed": true,
          "internalType": "address",
          "name": "to",
          "type": "address"
        },
        {
          "indexed": false,
          "internalType": "uint256",
          "name": "id",
          "type": "uint256"
        },
        {
          "indexed": false,
          "internalType": "uint256",
          "name": "value",
          "type": "uint256"
        }
      ],
      "name": "TransferSingle",
      "type": "event"
    },
    {
      "anonymous": false,
      "inputs": [
        {
          "indexed": false,
          "internalType": "string",
          "name": "value",
          "type": "string"
        },
        {
          "indexed": true,
          "internalType": "uint256",
          "name": "id",
          "type": "uint256"
        }
      ],
      "name": "URI",
      "type": "event"
    },
    {
      "inputs": [],
      "name": "_nftcreator",
      "outputs": [
        {
          "internalType": "address",
          "name": "",
          "type": "address"
        }
      ],
      "stateMutability": "view",
      "type": "function"
    },
    {
      "inputs": [
        {
          "internalType": "address",
          "name": "",
          "type": "address"
        }
      ],
      "name": "addressMintedBalance",
      "outputs": [
        {
          "internalType": "uint256",
          "name": "",
          "type": "uint256"
        }
      ],
      "stateMutability": "view",
      "type": "function"
    },
    {
      "inputs": [
        {
          "internalType": "address",
          "name": "account",
          "type": "address"
        },
        {
          "internalType": "uint256",
          "name": "id",
          "type": "uint256"
        }
      ],
      "name": "balanceOf",
      "outputs": [
        {
          "internalType": "uint256",
          "name": "",
          "type": "uint256"
        }
      ],
      "stateMutability": "view",
      "type": "function"
    },
    {
      "inputs": [
        {
          "internalType": "address[]",
          "name": "accounts",
          "type": "address[]"
        },
        {
          "internalType": "uint256[]",
          "name": "ids",
          "type": "uint256[]"
        }
      ],
      "name": "balanceOfBatch",
      "outputs": [
        {
          "internalType": "uint256[]",
          "name": "",
          "type": "uint256[]"
        }
      ],
      "stateMutability": "view",
      "type": "function"
    },
    {
      "inputs": [],
      "name": "baseExtension",
      "outputs": [
        {
          "internalType": "string",
          "name": "",
          "type": "string"
        }
      ],
      "stateMutability": "view",
      "type": "function"
    },
    {
      "inputs": [],
      "name": "baseURI",
      "outputs": [
        {
          "internalType": "string",
          "name": "",
          "type": "string"
        }
      ],
      "stateMutability": "view",
      "type": "function"
    },
    {
      "inputs": [],
      "name": "cost",
      "outputs": [
        {
          "internalType": "uint256",
          "name": "",
          "type": "uint256"
        }
      ],
      "stateMutability": "view",
      "type": "function"
    },
    {
      "inputs": [],
      "name": "deployedverified",
      "outputs": [
        {
          "internalType": "bool",
          "name": "",
          "type": "bool"
        }
      ],
      "stateMutability": "view",
      "type": "function"
    },
    {
      "inputs": [],
      "name": "getRemainCollections",
      "outputs": [
        {
          "internalType": "uint256",
          "name": "",
          "type": "uint256"
        }
      ],
      "stateMutability": "view",
      "type": "function"
    },
    {
      "inputs": [
        {
          "internalType": "address",
          "name": "account",
          "type": "address"
        },
        {
          "internalType": "address",
          "name": "operator",
          "type": "address"
        }
      ],
      "name": "isApprovedForAll",
      "outputs": [
        {
          "internalType": "bool",
          "name": "",
          "type": "bool"
        }
      ],
      "stateMutability": "view",
      "type": "function"
    },
    {
      "inputs": [
        {
          "internalType": "address",
          "name": "_user",
          "type": "address"
        }
      ],
      "name": "isWhitelisted",
      "outputs": [
        {
          "internalType": "bool",
          "name": "",
          "type": "bool"
        }
      ],
      "stateMutability": "view",
      "type": "function"
    },
    {
      "inputs": [],
      "name": "maxMintAmount",
      "outputs": [
        {
          "internalType": "uint256",
          "name": "",
          "type": "uint256"
        }
      ],
      "stateMutability": "view",
      "type": "function"
    },
    {
      "inputs": [],
      "name": "maxSupply",
      "outputs": [
        {
          "internalType": "uint256",
          "name": "",
          "type": "uint256"
        }
      ],
      "stateMutability": "view",
      "type": "function"
    },
    {
      "inputs": [
        {
          "internalType": "uint256",
          "name": "_mintAmount",
          "type": "uint256"
        }
      ],
      "name": "mint",
      "outputs": [],
      "stateMutability": "payable",
      "type": "function"
    },
    {
      "inputs": [],
      "name": "name",
      "outputs": [
        {
          "internalType": "string",
          "name": "",
          "type": "string"
        }
      ],
      "stateMutability": "view",
      "type": "function"
    },
    {
      "inputs": [],
      "name": "nftPerAddressLimit",
      "outputs": [
        {
          "internalType": "uint256",
          "name": "",
          "type": "uint256"
        }
      ],
      "stateMutability": "view",
      "type": "function"
    },
    {
      "inputs": [],
      "name": "notRevealedUri",
      "outputs": [
        {
          "internalType": "string",
          "name": "",
          "type": "string"
        }
      ],
      "stateMutability": "view",
      "type": "function"
    },
    {
      "inputs": [],
      "name": "onlyWhitelisted",
      "outputs": [
        {
          "internalType": "bool",
          "name": "",
          "type": "bool"
        }
      ],
      "stateMutability": "view",
      "type": "function"
    },
    {
      "inputs": [],
      "name": "owner",
      "outputs": [
        {
          "internalType": "address",
          "name": "",
          "type": "address"
        }
      ],
      "stateMutability": "view",
      "type": "function"
    },
    {
      "inputs": [
        {
          "internalType": "bool",
          "name": "_state",
          "type": "bool"
        }
      ],
      "name": "pause",
      "outputs": [],
      "stateMutability": "nonpayable",
      "type": "function"
    },
    {
      "inputs": [],
      "name": "paused",
      "outputs": [
        {
          "internalType": "bool",
          "name": "",
          "type": "bool"
        }
      ],
      "stateMutability": "view",
      "type": "function"
    },
    {
      "inputs": [],
      "name": "remainTokenAmount",
      "outputs": [
        {
          "internalType": "uint256",
          "name": "",
          "type": "uint256"
        }
      ],
      "stateMutability": "view",
      "type": "function"
    },
    {
      "inputs": [],
      "name": "renounceOwnership",
      "outputs": [],
      "stateMutability": "nonpayable",
      "type": "function"
    },
    {
      "inputs": [],
      "name": "reveal",
      "outputs": [],
      "stateMutability": "nonpayable",
      "type": "function"
    },
    {
      "inputs": [],
      "name": "revealed",
      "outputs": [
        {
          "internalType": "bool",
          "name": "",
          "type": "bool"
        }
      ],
      "stateMutability": "view",
      "type": "function"
    },
    {
      "inputs": [
        {
          "internalType": "address",
          "name": "from",
          "type": "address"
        },
        {
          "internalType": "address",
          "name": "to",
          "type": "address"
        },
        {
          "internalType": "uint256[]",
          "name": "ids",
          "type": "uint256[]"
        },
        {
          "internalType": "uint256[]",
          "name": "amounts",
          "type": "uint256[]"
        },
        {
          "internalType": "bytes",
          "name": "data",
          "type": "bytes"
        }
      ],
      "name": "safeBatchTransferFrom",
      "outputs": [],
      "stateMutability": "nonpayable",
      "type": "function"
    },
    {
      "inputs": [
        {
          "internalType": "address",
          "name": "from",
          "type": "address"
        },
        {
          "internalType": "address",
          "name": "to",
          "type": "address"
        },
        {
          "internalType": "uint256",
          "name": "id",
          "type": "uint256"
        },
        {
          "internalType": "uint256",
          "name": "amount",
          "type": "uint256"
        },
        {
          "internalType": "bytes",
          "name": "data",
          "type": "bytes"
        }
      ],
      "name": "safeTransferFrom",
      "outputs": [],
      "stateMutability": "nonpayable",
      "type": "function"
    },
    {
      "inputs": [
        {
          "internalType": "address",
          "name": "operator",
          "type": "address"
        },
        {
          "internalType": "bool",
          "name": "approved",
          "type": "bool"
        }
      ],
      "name": "setApprovalForAll",
      "outputs": [],
      "stateMutability": "nonpayable",
      "type": "function"
    },
    {
      "inputs": [
        {
          "internalType": "string",
          "name": "_newBaseExtension",
          "type": "string"
        }
      ],
      "name": "setBaseExtension",
      "outputs": [],
      "stateMutability": "nonpayable",
      "type": "function"
    },
    {
      "inputs": [
        {
          "internalType": "string",
          "name": "_newBaseURI",
          "type": "string"
        }
      ],
      "name": "setBaseURI",
      "outputs": [],
      "stateMutability": "nonpayable",
      "type": "function"
    },
    {
      "inputs": [
        {
          "internalType": "uint256",
          "name": "_newCost",
          "type": "uint256"
        }
      ],
      "name": "setCost",
      "outputs": [],
      "stateMutability": "nonpayable",
      "type": "function"
    },
    {
      "inputs": [
        {
          "internalType": "address",
          "name": "_activeCreater",
          "type": "address"
        }
      ],
      "name": "setNftCreatedAccount",
      "outputs": [],
      "stateMutability": "nonpayable",
      "type": "function"
    },
    {
      "inputs": [
        {
          "internalType": "uint256",
          "name": "_limit",
          "type": "uint256"
        }
      ],
      "name": "setNftPerAddressLimit",
      "outputs": [],
      "stateMutability": "nonpayable",
      "type": "function"
    },
    {
      "inputs": [],
      "name": "setNftRevealedURI",
      "outputs": [],
      "stateMutability": "payable",
      "type": "function"
    },
    {
      "inputs": [
        {
          "internalType": "string",
          "name": "_notRevealedURI",
          "type": "string"
        }
      ],
      "name": "setNotRevealedURI",
      "outputs": [],
      "stateMutability": "nonpayable",
      "type": "function"
    },
    {
      "inputs": [
        {
          "internalType": "bool",
          "name": "_state",
          "type": "bool"
        }
      ],
      "name": "setOnlyWhitelisted",
      "outputs": [],
      "stateMutability": "nonpayable",
      "type": "function"
    },
    {
      "inputs": [
        {
          "internalType": "uint256",
          "name": "_newmaxMintAmount",
          "type": "uint256"
        }
      ],
      "name": "setmaxMintAmount",
      "outputs": [],
      "stateMutability": "nonpayable",
      "type": "function"
    },
    {
      "inputs": [
        {
          "internalType": "bytes4",
          "name": "interfaceId",
          "type": "bytes4"
        }
      ],
      "name": "supportsInterface",
      "outputs": [
        {
          "internalType": "bool",
          "name": "",
          "type": "bool"
        }
      ],
      "stateMutability": "view",
      "type": "function"
    },
    {
      "inputs": [],
      "name": "symbol",
      "outputs": [
        {
          "internalType": "string",
          "name": "",
          "type": "string"
        }
      ],
      "stateMutability": "view",
      "type": "function"
    },
    {
      "inputs": [
        {
          "internalType": "uint256",
          "name": "tokenId",
          "type": "uint256"
        }
      ],
      "name": "tokenURI",
      "outputs": [
        {
          "internalType": "string",
          "name": "",
          "type": "string"
        }
      ],
      "stateMutability": "view",
      "type": "function"
    },
    {
      "inputs": [
        {
          "internalType": "address",
          "name": "newOwner",
          "type": "address"
        }
      ],
      "name": "transferOwnership",
      "outputs": [],
      "stateMutability": "nonpayable",
      "type": "function"
    },
    {
      "inputs": [
        {
          "internalType": "uint256",
          "name": "",
          "type": "uint256"
        }
      ],
      "name": "uri",
      "outputs": [
        {
          "internalType": "string",
          "name": "",
          "type": "string"
        }
      ],
      "stateMutability": "view",
      "type": "function"
    },
    {
      "inputs": [],
      "name": "walletOfOwner",
      "outputs": [
        {
          "internalType": "uint256[]",
          "name": "",
          "type": "uint256[]"
        }
      ],
      "stateMutability": "view",
      "type": "function"
    },
    {
      "inputs": [
        {
          "internalType": "address[]",
          "name": "_users",
          "type": "address[]"
        }
      ],
      "name": "whitelistUsers",
      "outputs": [],
      "stateMutability": "nonpayable",
      "type": "function"
    },
    {
      "inputs": [
        {
          "internalType": "uint256",
          "name": "",
          "type": "uint256"
        }
      ],
      "name": "whitelistedAddresses",
      "outputs": [
        {
          "internalType": "address",
          "name": "",
          "type": "address"
        }
      ],
      "stateMutability": "view",
      "type": "function"
    },
    {
      "inputs": [],
      "name": "withdraw",
      "outputs": [],
      "stateMutability": "payable",
      "type": "function"
    }
  ],
  "bytecode": "0x60c06040526005608081905264173539b7b760d91b60a09081526200002691908162000185565b50600e80546003546401000000006001600160a01b03909116026001600160c01b03199091161790553480156200005c57600080fd5b506040518060800160405280604d815260200162002adc604d913962000082816200011a565b506200008e3362000133565b60408051808201909152600780825266416e746941706560c81b6020909201918252620000bc918162000185565b5060408051808201909152600e8082526d105b9d1a505c1957dcde5b589bdb60921b6020909201918252620000f49160089162000185565b50666a94d74f4300006009556032600a819055600c556002600b819055600d5562000268565b80516200012f90600290602084019062000185565b5050565b600380546001600160a01b038381166001600160a01b0319831681179093556040519116919082907f8be0079c531659141344cd1fd0a4f28419497f9722a3daafe3b4186f6b6457e090600090a35050565b82805462000193906200022b565b90600052602060002090601f016020900481019282620001b7576000855562000202565b82601f10620001d257805160ff191683800117855562000202565b8280016001018555821562000202579182015b8281111562000202578251825591602001919060010190620001e5565b506200021092915062000214565b5090565b5b8082111562000210576000815560010162000215565b600181811c908216806200024057607f821691505b602082108114156200026257634e487b7160e01b600052602260045260246000fd5b50919050565b61286480620002786000396000f3fe60806040526004361061027c5760003560e01c80638da5cb5b1161014f578063c7873b83116100c1578063da3ef23f1161007a578063da3ef23f1461070f578063e985e9c51461072f578063edec5f2714610778578063f242432a14610798578063f2c4ce1e146107b8578063f2fde38b146107d857600080fd5b8063c7873b831461065b578063c87b56dd14610671578063cea7cf9014610691578063d0c27953146106b9578063d0eb26b0146106d9578063d5abeb01146106f957600080fd5b8063a22cb46511610113578063a22cb465146105ba578063a475b5dd146105da578063aac8520a146105ef578063ba4e5c4914610610578063ba7d2c7614610630578063c66828621461064657600080fd5b80638da5cb5b1461053857806395d89b411461056a5780639c70b5121461057f578063a0712d681461059f578063a09e843c146105b257600080fd5b806336fdefd4116101f357806351830227116101ac578063518302271461049557806355f804b3146104b45780635c975abb146104d45780636c0360eb146104ee578063715018a6146105035780637f00c7a61461051857600080fd5b806336fdefd4146103eb5780633af32abf1461040d5780633c9527641461042d5780633ccfd60b1461044d57806344a0d68a146104555780634e1273f41461047557600080fd5b8063081c8c4411610245578063081c8c441461033d5780630e89341c1461035257806313faede61461037257806318cae26914610388578063239c70ae146103b55780632eb2c2d6146103cb57600080fd5b8062fdd58e1461028157806301ffc9a7146102b457806302329a29146102e457806302fcb7af1461030657806306fdde031461031b575b600080fd5b34801561028d57600080fd5b506102a161029c36600461219a565b6107f8565b6040519081526020015b60405180910390f35b3480156102c057600080fd5b506102d46102cf366004612318565b61088f565b60405190151581526020016102ab565b3480156102f057600080fd5b506103046102ff3660046122fe565b6108e1565b005b34801561031257600080fd5b50600c546102a1565b34801561032757600080fd5b5061033061091e565b6040516102ab919061251f565b34801561034957600080fd5b506103306109ac565b34801561035e57600080fd5b5061033061036d36600461239e565b6109b9565b34801561037e57600080fd5b506102a160095481565b34801561039457600080fd5b506102a16103a336600461201c565b60106020526000908152604090205481565b3480156103c157600080fd5b506102a1600b5481565b3480156103d757600080fd5b506103046103e6366004612068565b610a4d565b3480156103f757600080fd5b50610400610ae4565b6040516102ab91906124de565b34801561041957600080fd5b506102d461042836600461201c565b610b6e565b34801561043957600080fd5b506103046104483660046122fe565b610be6565b610304610c2c565b34801561046157600080fd5b5061030461047036600461239e565b610cca565b34801561048157600080fd5b50610400610490366004612233565b610cf9565b3480156104a157600080fd5b50600e546102d490610100900460ff1681565b3480156104c057600080fd5b506103046104cf366004612350565b610e5b565b3480156104e057600080fd5b50600e546102d49060ff1681565b3480156104fa57600080fd5b50610330610e9c565b34801561050f57600080fd5b50610304610ea9565b34801561052457600080fd5b5061030461053336600461239e565b610edf565b34801561054457600080fd5b506003546001600160a01b03165b6040516001600160a01b0390911681526020016102ab565b34801561057657600080fd5b50610330610f0e565b34801561058b57600080fd5b50600e546102d49062010000900460ff1681565b6103046105ad36600461239e565b610f1b565b6103046112b3565b3480156105c657600080fd5b506103046105d5366004612171565b611328565b3480156105e657600080fd5b506103046113ff565b3480156105fb57600080fd5b50600e546102d4906301000000900460ff1681565b34801561061c57600080fd5b5061055261062b36600461239e565b61143a565b34801561063c57600080fd5b506102a1600d5481565b34801561065257600080fd5b50610330611464565b34801561066757600080fd5b506102a1600c5481565b34801561067d57600080fd5b5061033061068c36600461239e565b611471565b34801561069d57600080fd5b50600e546105529064010000000090046001600160a01b031681565b3480156106c557600080fd5b506103046106d436600461201c565b611495565b3480156106e557600080fd5b506103046106f436600461239e565b6114e9565b34801561070557600080fd5b506102a1600a5481565b34801561071b57600080fd5b5061030461072a366004612350565b611518565b34801561073b57600080fd5b506102d461074a366004612036565b6001600160a01b03918216600090815260016020908152604080832093909416825291909152205460ff1690565b34801561078457600080fd5b506103046107933660046121c3565b611555565b3480156107a457600080fd5b506103046107b336600461210e565b611597565b3480156107c457600080fd5b506103046107d3366004612350565b61161e565b3480156107e457600080fd5b506103046107f336600461201c565b61165b565b60006001600160a01b0383166108695760405162461bcd60e51b815260206004820152602b60248201527f455243313135353a2062616c616e636520717565727920666f7220746865207a60448201526a65726f206164647265737360a81b60648201526084015b60405180910390fd5b506000908152602081815260408083206001600160a01b03949094168352929052205490565b60006001600160e01b03198216636cdb3d1360e11b14806108c057506001600160e01b031982166303a24d0760e21b145b806108db57506301ffc9a760e01b6001600160e01b03198316145b92915050565b6003546001600160a01b0316331461090b5760405162461bcd60e51b815260040161086090612609565b600e805460ff1916911515919091179055565b6007805461092b906126c7565b80601f0160208091040260200160405190810160405280929190818152602001828054610957906126c7565b80156109a45780601f10610979576101008083540402835291602001916109a4565b820191906000526020600020905b81548152906001019060200180831161098757829003601f168201915b505050505081565b6006805461092b906126c7565b6060600280546109c8906126c7565b80601f01602080910402602001604051908101604052809291908181526020018280546109f4906126c7565b8015610a415780601f10610a1657610100808354040283529160200191610a41565b820191906000526020600020905b815481529060010190602001808311610a2457829003601f168201915b50505050509050919050565b6001600160a01b038516331480610a695750610a69853361074a565b610ad05760405162461bcd60e51b815260206004820152603260248201527f455243313135353a207472616e736665722063616c6c6572206973206e6f74206044820152711bdddb995c881b9bdc88185c1c1c9bdd995960721b6064820152608401610860565b610add85858585856116f3565b5050505050565b60606000610af33360006107f8565b905060008167ffffffffffffffff811115610b1e57634e487b7160e01b600052604160045260246000fd5b604051908082528060200260200182016040528015610b47578160200160208202803683370190505b50905060005b82811015610b675780610b5f8161272f565b915050610b4d565b5092915050565b6000805b600f54811015610bdd57826001600160a01b0316600f8281548110610ba757634e487b7160e01b600052603260045260246000fd5b6000918252602090912001546001600160a01b03161415610bcb5750600192915050565b80610bd58161272f565b915050610b72565b50600092915050565b6003546001600160a01b03163314610c105760405162461bcd60e51b815260040161086090612609565b600e8054911515620100000262ff000019909216919091179055565b6003546001600160a01b03163314610c565760405162461bcd60e51b815260040161086090612609565b6000610c6a6003546001600160a01b031690565b6001600160a01b03164760405160006040518083038185875af1925050503d8060008114610cb4576040519150601f19603f3d011682016040523d82523d6000602084013e610cb9565b606091505b5050905080610cc757600080fd5b50565b6003546001600160a01b03163314610cf45760405162461bcd60e51b815260040161086090612609565b600955565b60608151835114610d5e5760405162461bcd60e51b815260206004820152602960248201527f455243313135353a206163636f756e747320616e6420696473206c656e677468604482015268040dad2e6dac2e8c6d60bb1b6064820152608401610860565b6000835167ffffffffffffffff811115610d8857634e487b7160e01b600052604160045260246000fd5b604051908082528060200260200182016040528015610db1578160200160208202803683370190505b50905060005b8451811015610e5357610e18858281518110610de357634e487b7160e01b600052603260045260246000fd5b6020026020010151858381518110610e0b57634e487b7160e01b600052603260045260246000fd5b60200260200101516107f8565b828281518110610e3857634e487b7160e01b600052603260045260246000fd5b6020908102919091010152610e4c8161272f565b9050610db7565b509392505050565b6003546001600160a01b03163314610e855760405162461bcd60e51b815260040161086090612609565b8051610e98906004906020840190611df3565b5050565b6004805461092b906126c7565b6003546001600160a01b03163314610ed35760405162461bcd60e51b815260040161086090612609565b610edd60006118ec565b565b6003546001600160a01b03163314610f095760405162461bcd60e51b815260040161086090612609565b600b55565b6008805461092b906126c7565b600e5460ff1615610f675760405162461bcd60e51b81526020600482015260166024820152751d1a194818dbdb9d1c9858dd081a5cc81c185d5cd95960521b6044820152606401610860565b34610fb45760405162461bcd60e51b815260206004820181905260248201527f526f79616c74792076616c75652073686f756c6420626520706f7369746976656044820152606401610860565b336110015760405162461bcd60e51b815260206004820152601b60248201527f526563697069656e742073686f756c642062652070726573656e7400000000006044820152606401610860565b600081116110515760405162461bcd60e51b815260206004820152601b60248201527f6e65656420746f206d696e74206174206c656173742031204e465400000000006044820152606401610860565b600b548111156110af5760405162461bcd60e51b8152602060048201526024808201527f6d6178206d696e7420616d6f756e74207065722073657373696f6e20657863656044820152631959195960e21b6064820152608401610860565b6000600c54116110fa5760405162461bcd60e51b81526020600482015260166024820152751b585e08139195081b1a5b5a5d08195e18d95959195960521b6044820152606401610860565b6003546001600160a01b0316331461123657600e5462010000900460ff161515600114156111e45761112b33610b6e565b6111775760405162461bcd60e51b815260206004820152601760248201527f75736572206973206e6f742077686974656c69737465640000000000000000006044820152606401610860565b33600090815260106020526040902054600d546111948383612662565b11156111e25760405162461bcd60e51b815260206004820152601c60248201527f6d6178204e4654207065722061646472657373206578636565646564000000006044820152606401610860565b505b806009546111f2919061267a565b3410156112365760405162461bcd60e51b8152602060048201526012602482015271696e73756666696369656e742066756e647360701b6044820152606401610860565b60015b818111610e985761126b33600c54600a546112549190612699565b60016040518060200160405280600081525061193e565b3360009081526010602052604081208054916112868361272f565b9091555050600c805490600061129b836126b0565b919050555080806112ab9061272f565b915050611239565b600e546301000000900460ff16151560011415610edd57600e546040516401000000009091046001600160a01b0316904790600081818185875af1925050503d806000811461131e576040519150601f19603f3d011682016040523d82523d6000602084013e505050565b606091505b505050565b336001600160a01b03831614156113935760405162461bcd60e51b815260206004820152602960248201527f455243313135353a2073657474696e6720617070726f76616c20737461747573604482015268103337b91039b2b63360b91b6064820152608401610860565b3360008181526001602090815260408083206001600160a01b03871680855290835292819020805460ff191686151590811790915590519081529192917f17307eab39ab6107e8899845ad3d59bd9653f200f220920489ca2b5937696c31910160405180910390a35050565b6003546001600160a01b031633146114295760405162461bcd60e51b815260040161086090612609565b600e805461ff001916610100179055565b600f818154811061144a57600080fd5b6000918252602090912001546001600160a01b0316905081565b6005805461092b906126c7565b600e54606090610100900460ff1661149057600680546109c8906126c7565b919050565b600e546301000000900460ff16156114ac57600080fd5b600e805463ff000000196001600160a01b0390931664010000000002929092166301000000600160c01b0319909216919091176301000000179055565b6003546001600160a01b031633146115135760405162461bcd60e51b815260040161086090612609565b600d55565b6003546001600160a01b031633146115425760405162461bcd60e51b815260040161086090612609565b8051610e98906005906020840190611df3565b6003546001600160a01b0316331461157f5760405162461bcd60e51b815260040161086090612609565b61158b600f6000611e77565b611323600f8383611e95565b6001600160a01b0385163314806115b357506115b3853361074a565b6116115760405162461bcd60e51b815260206004820152602960248201527f455243313135353a2063616c6c6572206973206e6f74206f776e6572206e6f7260448201526808185c1c1c9bdd995960ba1b6064820152608401610860565b610add8585858585611a48565b6003546001600160a01b031633146116485760405162461bcd60e51b815260040161086090612609565b8051610e98906006906020840190611df3565b6003546001600160a01b031633146116855760405162461bcd60e51b815260040161086090612609565b6001600160a01b0381166116ea5760405162461bcd60e51b815260206004820152602660248201527f4f776e61626c653a206e6577206f776e657220697320746865207a65726f206160448201526564647265737360d01b6064820152608401610860565b610cc7816118ec565b81518351146117555760405162461bcd60e51b815260206004820152602860248201527f455243313135353a2069647320616e6420616d6f756e7473206c656e677468206044820152670dad2e6dac2e8c6d60c31b6064820152608401610860565b6001600160a01b03841661177b5760405162461bcd60e51b81526004016108609061257a565b3360005b845181101561187e5760008582815181106117aa57634e487b7160e01b600052603260045260246000fd5b6020026020010151905060008583815181106117d657634e487b7160e01b600052603260045260246000fd5b602090810291909101810151600084815280835260408082206001600160a01b038e1683529093529190912054909150818110156118265760405162461bcd60e51b8152600401610860906125bf565b6000838152602081815260408083206001600160a01b038e8116855292528083208585039055908b16825281208054849290611863908490612662565b92505081905550505050806118779061272f565b905061177f565b50846001600160a01b0316866001600160a01b0316826001600160a01b03167f4a39dc06d4c0dbc64b70af90fd698a233a518aa5d07e595d983b8c0526c8f7fb87876040516118ce9291906124f1565b60405180910390a46118e4818787878787611b65565b505050505050565b600380546001600160a01b038381166001600160a01b0319831681179093556040519116919082907f8be0079c531659141344cd1fd0a4f28419497f9722a3daafe3b4186f6b6457e090600090a35050565b6001600160a01b03841661199e5760405162461bcd60e51b815260206004820152602160248201527f455243313135353a206d696e7420746f20746865207a65726f206164647265736044820152607360f81b6064820152608401610860565b336119b8816000876119af88611cd0565b610add88611cd0565b6000848152602081815260408083206001600160a01b0389168452909152812080548592906119e8908490612662565b909155505060408051858152602081018590526001600160a01b0380881692600092918516917fc3d58168c5ae7397731d063d5bbf3d657854427343f4c083240f7aacaa2d0f62910160405180910390a4610add81600087878787611d29565b6001600160a01b038416611a6e5760405162461bcd60e51b81526004016108609061257a565b33611a7e8187876119af88611cd0565b6000848152602081815260408083206001600160a01b038a16845290915290205483811015611abf5760405162461bcd60e51b8152600401610860906125bf565b6000858152602081815260408083206001600160a01b038b8116855292528083208785039055908816825281208054869290611afc908490612662565b909155505060408051868152602081018690526001600160a01b03808916928a821692918616917fc3d58168c5ae7397731d063d5bbf3d657854427343f4c083240f7aacaa2d0f62910160405180910390a4611b5c828888888888611d29565b50505050505050565b6001600160a01b0384163b156118e45760405163bc197c8160e01b81526001600160a01b0385169063bc197c8190611ba9908990899088908890889060040161243b565b602060405180830381600087803b158015611bc357600080fd5b505af1925050508015611bf3575060408051601f3d908101601f19168201909252611bf091810190612334565b60015b611ca057611bff612776565b806308c379a01415611c395750611c1461278e565b80611c1f5750611c3b565b8060405162461bcd60e51b8152600401610860919061251f565b505b60405162461bcd60e51b815260206004820152603460248201527f455243313135353a207472616e7366657220746f206e6f6e20455243313135356044820152732932b1b2b4bb32b91034b6b83632b6b2b73a32b960611b6064820152608401610860565b6001600160e01b0319811663bc197c8160e01b14611b5c5760405162461bcd60e51b815260040161086090612532565b60408051600180825281830190925260609160009190602080830190803683370190505090508281600081518110611d1857634e487b7160e01b600052603260045260246000fd5b602090810291909101015292915050565b6001600160a01b0384163b156118e45760405163f23a6e6160e01b81526001600160a01b0385169063f23a6e6190611d6d9089908990889088908890600401612499565b602060405180830381600087803b158015611d8757600080fd5b505af1925050508015611db7575060408051601f3d908101601f19168201909252611db491810190612334565b60015b611dc357611bff612776565b6001600160e01b0319811663f23a6e6160e01b14611b5c5760405162461bcd60e51b815260040161086090612532565b828054611dff906126c7565b90600052602060002090601f016020900481019282611e215760008555611e67565b82601f10611e3a57805160ff1916838001178555611e67565b82800160010185558215611e67579182015b82811115611e67578251825591602001919060010190611e4c565b50611e73929150611ee8565b5090565b5080546000825590600052602060002090810190610cc79190611ee8565b828054828255906000526020600020908101928215611e67579160200282015b82811115611e675781546001600160a01b0319166001600160a01b03843516178255602090920191600190910190611eb5565b5b80821115611e735760008155600101611ee9565b600067ffffffffffffffff831115611f1757611f17612760565b604051611f2e601f8501601f191660200182612702565b809150838152848484011115611f4357600080fd5b83836020830137600060208583010152509392505050565b80356001600160a01b038116811461149057600080fd5b600082601f830112611f82578081fd5b81356020611f8f8261263e565b604051611f9c8282612702565b8381528281019150858301600585901b87018401881015611fbb578586fd5b855b85811015611fd957813584529284019290840190600101611fbd565b5090979650505050505050565b8035801515811461149057600080fd5b600082601f830112612006578081fd5b61201583833560208501611efd565b9392505050565b60006020828403121561202d578081fd5b61201582611f5b565b60008060408385031215612048578081fd5b61205183611f5b565b915061205f60208401611f5b565b90509250929050565b600080600080600060a0868803121561207f578081fd5b61208886611f5b565b945061209660208701611f5b565b9350604086013567ffffffffffffffff808211156120b2578283fd5b6120be89838a01611f72565b945060608801359150808211156120d3578283fd5b6120df89838a01611f72565b935060808801359150808211156120f4578283fd5b5061210188828901611ff6565b9150509295509295909350565b600080600080600060a08688031215612125578081fd5b61212e86611f5b565b945061213c60208701611f5b565b93506040860135925060608601359150608086013567ffffffffffffffff811115612165578182fd5b61210188828901611ff6565b60008060408385031215612183578182fd5b61218c83611f5b565b915061205f60208401611fe6565b600080604083850312156121ac578182fd5b6121b583611f5b565b946020939093013593505050565b600080602083850312156121d5578182fd5b823567ffffffffffffffff808211156121ec578384fd5b818501915085601f8301126121ff578384fd5b81358181111561220d578485fd5b8660208260051b8501011115612221578485fd5b60209290920196919550909350505050565b60008060408385031215612245578182fd5b823567ffffffffffffffff8082111561225c578384fd5b818501915085601f83011261226f578384fd5b8135602061227c8261263e565b6040516122898282612702565b8381528281019150858301600585901b870184018b10156122a8578889fd5b8896505b848710156122d1576122bd81611f5b565b8352600196909601959183019183016122ac565b50965050860135925050808211156122e7578283fd5b506122f485828601611f72565b9150509250929050565b60006020828403121561230f578081fd5b61201582611fe6565b600060208284031215612329578081fd5b813561201581612818565b600060208284031215612345578081fd5b815161201581612818565b600060208284031215612361578081fd5b813567ffffffffffffffff811115612377578182fd5b8201601f81018413612387578182fd5b61239684823560208401611efd565b949350505050565b6000602082840312156123af578081fd5b5035919050565b6000815180845260208085019450808401835b838110156123e5578151875295820195908201906001016123c9565b509495945050505050565b60008151808452815b81811015612415576020818501810151868301820152016123f9565b818111156124265782602083870101525b50601f01601f19169290920160200192915050565b6001600160a01b0386811682528516602082015260a060408201819052600090612467908301866123b6565b828103606084015261247981866123b6565b9050828103608084015261248d81856123f0565b98975050505050505050565b6001600160a01b03868116825285166020820152604081018490526060810183905260a0608082018190526000906124d3908301846123f0565b979650505050505050565b60208152600061201560208301846123b6565b60408152600061250460408301856123b6565b828103602084015261251681856123b6565b95945050505050565b60208152600061201560208301846123f0565b60208082526028908201527f455243313135353a204552433131353552656365697665722072656a656374656040820152676420746f6b656e7360c01b606082015260800190565b60208082526025908201527f455243313135353a207472616e7366657220746f20746865207a65726f206164604082015264647265737360d81b606082015260800190565b6020808252602a908201527f455243313135353a20696e73756666696369656e742062616c616e636520666f60408201526939103a3930b739b332b960b11b606082015260800190565b6020808252818101527f4f776e61626c653a2063616c6c6572206973206e6f7420746865206f776e6572604082015260600190565b600067ffffffffffffffff82111561265857612658612760565b5060051b60200190565b600082198211156126755761267561274a565b500190565b60008160001904831182151516156126945761269461274a565b500290565b6000828210156126ab576126ab61274a565b500390565b6000816126bf576126bf61274a565b506000190190565b600181811c908216806126db57607f821691505b602082108114156126fc57634e487b7160e01b600052602260045260246000fd5b50919050565b601f8201601f1916810167ffffffffffffffff8111828210171561272857612728612760565b6040525050565b60006000198214156127435761274361274a565b5060010190565b634e487b7160e01b600052601160045260246000fd5b634e487b7160e01b600052604160045260246000fd5b600060033d111561278b57600481823e5160e01c5b90565b600060443d101561279c5790565b6040516003193d81016004833e81513d67ffffffffffffffff81602484011181841117156127cc57505050505090565b82850191508151818111156127e45750505050505090565b843d87010160208285010111156127fe5750505050505090565b61280d60208286010187612702565b509095945050505050565b6001600160e01b031981168114610cc757600080fdfea26469706673582212205924f932287cebfa088548768ef7537b8bf58912936c1dae7ee8edd3857e26ca64736f6c6343000804003368747470733a2f2f697066732e696f2f697066732f516d656f4a645159645373643755627243524c74646377663961696d7378776167485432577956703770423463432f7b69647d2e6a736f6e",
  "linkReferences": {},
  "deployedLinkReferences": {}
}